{"abi":[{"type":"function","name":"activeCommitment","inputs":[{"name":"","type":"uint256","internalType":"uint256"}],"outputs":[{"name":"","type":"uint256","internalType":"uint256"}],"stateMutability":"view"},{"type":"function","name":"commitPolicy","inputs":[{"name":"agentId","type":"uint256","internalType":"uint256"},{"name":"policyHash","type":"bytes32","internalType":"bytes32"}],"outputs":[{"name":"","type":"uint256","internalType":"uint256"}],"stateMutability":"nonpayable"},{"type":"function","name":"commitments","inputs":[{"name":"","type":"uint256","internalType":"uint256"}],"outputs":[{"name":"policyHash","type":"bytes32","internalType":"bytes32"},{"name":"agentId","type":"uint256","internalType":"uint256"},{"name":"owner","type":"address","internalType":"address"},{"name":"createdAt","type":"uint256","internalType":"uint256"},{"name":"active","type":"bool","internalType":"bool"}],"stateMutability":"view"},{"type":"function","name":"deactivateCommitment","inputs":[{"name":"id","type":"uint256","internalType":"uint256"}],"outputs":[],"stateMutability":"nonpayable"},{"type":"function","name":"getActivePolicyHash","inputs":[{"name":"agentId","type":"uint256","internalType":"uint256"}],"outputs":[{"name":"","type":"bytes32","internalType":"bytes32"}],"stateMutability":"view"},{"type":"function","name":"isActive","inputs":[{"name":"id","type":"uint256","internalType":"uint256"}],"outputs":[{"name":"","type":"bool","internalType":"bool"}],"stateMutability":"view"},{"type":"function","name":"nextId","inputs":[],"outputs":[{"name":"","type":"uint256","internalType":"uint256"}],"stateMutability":"view"},{"type":"function","name":"verifyCommitment","inputs":[{"name":"agentId","type":"uint256","internalType":"uint256"},{"name":"policyHash","type":"bytes32","internalType":"bytes32"}],"outputs":[{"name":"","type":"bool","internalType":"bool"}],"stateMutability":"view"},{"type":"event","name":"CommitmentCreated","inputs":[{"name":"id","type":"uint256","indexed":true,"internalType":"uint256"},{"name":"agentId","type":"uint256","indexed":true,"internalType":"uint256"},{"name":"policyHash","type":"bytes32","indexed":false,"internalType":"bytes32"}],"anonymous":false},{"type":"event","name":"CommitmentDeactivated","inputs":[{"name":"id","type":"uint256","indexed":true,"internalType":"uint256"},{"name":"agentId","type":"uint256","indexed":true,"internalType":"uint256"}],"anonymous":false}],"bytecode":{"object":"0x6080604052348015600e575f5ffd5b506109ff8061001c5f395ff3fe608060405234801561000f575f5ffd5b5060043610610086575f3560e01c8063abe378a611610059578063abe378a61461013c578063bca210a214610158578063c82a554014610188578063e226a31d146101b857610086565b80631e8d716d1461008a57806349ce8997146100ba57806361b8ce8c146100ee57806382afd23b1461010c575b5f5ffd5b6100a4600480360381019061009f9190610691565b6101e8565b6040516100b191906106e9565b60405180910390f35b6100d460048036038101906100cf9190610702565b610244565b6040516100e595949392919061078a565b60405180910390f35b6100f66102a0565b60405161010391906107db565b60405180910390f35b61012660048036038101906101219190610702565b6102a6565b60405161013391906106e9565b60405180910390f35b61015660048036038101906101519190610702565b6102ce565b005b610172600480360381019061016d9190610702565b61043b565b60405161017f91906107db565b60405180910390f35b6101a2600480360381019061019d9190610702565b610450565b6040516101af91906107f4565b60405180910390f35b6101d260048036038101906101cd9190610691565b6104e0565b6040516101df91906107db565b60405180910390f35b5f5f60025f8581526020019081526020015f205490505f5f8281526020019081526020015f206004015f9054906101000a900460ff16801561023b5750825f5f8381526020019081526020015f205f0154145b91505092915050565b5f602052805f5260405f205f91509050805f015490806001015490806002015f9054906101000a900473ffffffffffffffffffffffffffffffffffffffff1690806003015490806004015f9054906101000a900460ff16905085565b60015481565b5f5f5f8381526020019081526020015f206004015f9054906101000a900460ff169050919050565b3373ffffffffffffffffffffffffffffffffffffffff165f5f8381526020019081526020015f206002015f9054906101000a900473ffffffffffffffffffffffffffffffffffffffff1673ffffffffffffffffffffffffffffffffffffffff161461036e576040517f08c379a000000000000000000000000000000000000000000000000000000000815260040161036590610867565b60405180910390fd5b5f5f8281526020019081526020015f206004015f9054906101000a900460ff166103cd576040517f08c379a00000000000000000000000000000000000000000000000000000000081526004016103c4906108cf565b60405180910390fd5b5f5f5f8381526020019081526020015f206004015f6101000a81548160ff0219169083151502179055505f5f8281526020019081526020015f2060010154817fe9e4b297a1c9921ee61d87a72ee99a02d603bf803c5ab6ad0516743240b1f1de60405160405180910390a350565b6002602052805f5260405f205f915090505481565b5f5f60025f8481526020019081526020015f205490505f5f8281526020019081526020015f206004015f9054906101000a900460ff166104c5576040517f08c379a00000000000000000000000000000000000000000000000000000000081526004016104bc90610937565b60405180910390fd5b5f5f8281526020019081526020015f205f0154915050919050565b5f5f60015f8154809291906104f490610982565b9190505590506040518060a001604052808481526020018581526020013373ffffffffffffffffffffffffffffffffffffffff168152602001428152602001600115158152505f5f8381526020019081526020015f205f820151815f0155602082015181600101556040820151816002015f6101000a81548173ffffffffffffffffffffffffffffffffffffffff021916908373ffffffffffffffffffffffffffffffffffffffff160217905550606082015181600301556080820151816004015f6101000a81548160ff0219169083151502179055509050508060025f8681526020019081526020015f208190555083817f11bd718a839f3780095d215ddae491be38145e6db53771b23a4bbc1dd740e7408560405161061591906107f4565b60405180910390a38091505092915050565b5f5ffd5b5f819050919050565b61063d8161062b565b8114610647575f5ffd5b50565b5f8135905061065881610634565b92915050565b5f819050919050565b6106708161065e565b811461067a575f5ffd5b50565b5f8135905061068b81610667565b92915050565b5f5f604083850312156106a7576106a6610627565b5b5f6106b48582860161064a565b92505060206106c58582860161067d565b9150509250929050565b5f8115159050919050565b6106e3816106cf565b82525050565b5f6020820190506106fc5f8301846106da565b92915050565b5f6020828403121561071757610716610627565b5b5f6107248482850161064a565b91505092915050565b6107368161065e565b82525050565b6107458161062b565b82525050565b5f73ffffffffffffffffffffffffffffffffffffffff82169050919050565b5f6107748261074b565b9050919050565b6107848161076a565b82525050565b5f60a08201905061079d5f83018861072d565b6107aa602083018761073c565b6107b7604083018661077b565b6107c4606083018561073c565b6107d160808301846106da565b9695505050505050565b5f6020820190506107ee5f83018461073c565b92915050565b5f6020820190506108075f83018461072d565b92915050565b5f82825260208201905092915050565b7f4e6f74206f776e657200000000000000000000000000000000000000000000005f82015250565b5f61085160098361080d565b915061085c8261081d565b602082019050919050565b5f6020820190508181035f83015261087e81610845565b9050919050565b7f416c726561647920696e616374697665000000000000000000000000000000005f82015250565b5f6108b960108361080d565b91506108c482610885565b602082019050919050565b5f6020820190508181035f8301526108e6816108ad565b9050919050565b7f4e6f2061637469766520636f6d6d69746d656e740000000000000000000000005f82015250565b5f61092160148361080d565b915061092c826108ed565b602082019050919050565b5f6020820190508181035f83015261094e81610915565b9050919050565b7f4e487b71000000000000000000000000000000000000000000000000000000005f52601160045260245ffd5b5f61098c8261062b565b91507fffffffffffffffffffffffffffffffffffffffffffffffffffffffffffffffff82036109be576109bd610955565b5b60018201905091905056fea264697066735822122001ae7ddc5a4ddd8196ede6c3f487514aaea994e75a7ed53d540e49a07ba6684264736f6c634300081c0033","linkReferences":{}},"methodIdentifiers":{"activeCommitment(uint256)":"bca210a2","commitPolicy(uint256,bytes32)":"e226a31d","commitments(uint256)":"49ce8997","deactivateCommitment(uint256)":"abe378a6","getActivePolicyHash(uint256)":"c82a5540","isActive(uint256)":"82afd23b","nextId()":"61b8ce8c","verifyCommitment(uint256,bytes32)":"1e8d716d"},"id":0}